{"contracts/TodoList.sol":{"TodoList":{"abi":[{"anonymous":false,"inputs":[{"indexed":false,"internalType":"string","name":"task","type":"string"}],"name":"TaskAdded","type":"event"},{"anonymous":false,"inputs":[{"indexed":false,"internalType":"uint256","name":"index","type":"uint256"}],"name":"TaskRemoved","type":"event"},{"inputs":[{"internalType":"string","name":"_task","type":"string"}],"name":"addTask","outputs":[],"stateMutability":"nonpayable","type":"function"},{"inputs":[],"name":"getTasks","outputs":[{"internalType":"string[]","name":"","type":"string[]"}],"stateMutability":"view","type":"function"},{"inputs":[{"internalType":"uint256","name":"_index","type":"uint256"}],"name":"removeTask","outputs":[],"stateMutability":"nonpayable","type":"function"}],"evm":{"bytecode":{"linkReferences":{},"object":"608060405234801561001057600080fd5b50610c9f806100206000396000f3fe608060405234801561001057600080fd5b50600436106100415760003560e01c806304a87e38146100465780636723856214610064578063c308411714610080575b600080fd5b61004e61009c565b60405161005b919061049e565b60405180910390f35b61007e60048036038101906100799190610609565b610175565b005b61009a60048036038101906100959190610688565b6101e4565b005b60606000805480602002602001604051908101604052809291908181526020016000905b8282101561016c5783829060005260206000200180546100df906106e4565b80601f016020809104026020016040519081016040528092919081815260200182805461010b906106e4565b80156101585780601f1061012d57610100808354040283529160200191610158565b820191906000526020600020905b81548152906001019060200180831161013b57829003601f168201915b5050505050815260200190600101906100c0565b50505050905090565b6000819080600181540180825580915050600190039060005260206000200160009091909190915090816101a991906108c1565b507f9c5e28549cab51b5d02e7eee4fd0f6d00b70fa92e37de0a00d5b6a3c1400a927816040516101d991906109dd565b60405180910390a150565b600080549050811061022b576040517f08c379a000000000000000000000000000000000000000000000000000000000815260040161022290610a4b565b60405180910390fd5b6000600160008054905061023f9190610a9a565b815481106102505761024f610ace565b5b906000526020600020016000828154811061026e5761026d610ace565b5b9060005260206000200190816102849190610b28565b50600080548061029757610296610c10565b5b6001900381819060005260206000200160006102b391906102ef565b90557f36a2f40cfe61ace5baf26a6e4f86ffa75c62392fde263d354d42e0e718fa4bd1816040516102e49190610c4e565b60405180910390a150565b5080546102fb906106e4565b6000825580601f1061030d575061032c565b601f01602090049060005260206000209081019061032b919061032f565b5b50565b5b80821115610348576000816000905550600101610330565b5090565b600081519050919050565b600082825260208201905092915050565b6000819050602082019050919050565b600081519050919050565b600082825260208201905092915050565b60005b838110156103b2578082015181840152602081019050610397565b60008484015250505050565b6000601f19601f8301169050919050565b60006103da82610378565b6103e48185610383565b93506103f4818560208601610394565b6103fd816103be565b840191505092915050565b600061041483836103cf565b905092915050565b6000602082019050919050565b60006104348261034c565b61043e8185610357565b93508360208202850161045085610368565b8060005b8581101561048c578484038952815161046d8582610408565b94506104788361041c565b925060208a01995050600181019050610454565b50829750879550505050505092915050565b600060208201905081810360008301526104b88184610429565b905092915050565b6000604051905090565b600080fd5b600080fd5b600080fd5b600080fd5b7f4e487b7100000000000000000000000000000000000000000000000000000000600052604160045260246000fd5b610516826103be565b810181811067ffffffffffffffff82111715610535576105346104de565b5b80604052505050565b60006105486104c0565b9050610554828261050d565b919050565b600067ffffffffffffffff821115610574576105736104de565b5b61057d826103be565b9050602081019050919050565b82818337600083830152505050565b60006105ac6105a784610559565b61053e565b9050828152602081018484840111156105c8576105c76104d9565b5b6105d384828561058a565b509392505050565b600082601f8301126105f0576105ef6104d4565b5b8135610600848260208601610599565b91505092915050565b60006020828403121561061f5761061e6104ca565b5b600082013567ffffffffffffffff81111561063d5761063c6104cf565b5b610649848285016105db565b91505092915050565b6000819050919050565b61066581610652565b811461067057600080fd5b50565b6000813590506106828161065c565b92915050565b60006020828403121561069e5761069d6104ca565b5b60006106ac84828501610673565b91505092915050565b7f4e487b7100000000000000000000000000000000000000000000000000000000600052602260045260246000fd5b600060028204905060018216806106fc57607f821691505b60208210810361070f5761070e6106b5565b5b50919050565b60008190508160005260206000209050919050565b60006020601f8301049050919050565b600082821b905092915050565b6000600883026107777fffffffffffffffffffffffffffffffffffffffffffffffffffffffffffffffff8261073a565b610781868361073a565b95508019841693508086168417925050509392505050565b6000819050919050565b60006107be6107b96107b484610652565b610799565b610652565b9050919050565b6000819050919050565b6107d8836107a3565b6107ec6107e4826107c5565b848454610747565b825550505050565b600090565b6108016107f4565b61080c8184846107cf565b505050565b5b81811015610830576108256000826107f9565b600181019050610812565b5050565b601f8211156108755761084681610715565b61084f8461072a565b8101602085101561085e578190505b61087261086a8561072a565b830182610811565b50505b505050565b600082821c905092915050565b60006108986000198460080261087a565b1980831691505092915050565b60006108b18383610887565b9150826002028217905092915050565b6108ca82610378565b67ffffffffffffffff8111156108e3576108e26104de565b5b6108ed82546106e4565b6108f8828285610834565b600060209050601f83116001811461092b5760008415610919578287015190505b61092385826108a5565b86555061098b565b601f19841661093986610715565b60005b828110156109615784890151825560018201915060208501945060208101905061093c565b8683101561097e578489015161097a601f891682610887565b8355505b6001600288020188555050505b505050505050565b600082825260208201905092915050565b60006109af82610378565b6109b98185610993565b93506109c9818560208601610394565b6109d2816103be565b840191505092915050565b600060208201905081810360008301526109f781846109a4565b905092915050565b7f496e76616c696420696e64657800000000000000000000000000000000000000600082015250565b6000610a35600d83610993565b9150610a40826109ff565b602082019050919050565b60006020820190508181036000830152610a6481610a28565b9050919050565b7f4e487b7100000000000000000000000000000000000000000000000000000000600052601160045260246000fd5b6000610aa582610652565b9150610ab083610652565b9250828203905081811115610ac857610ac7610a6b565b5b92915050565b7f4e487b7100000000000000000000000000000000000000000000000000000000600052603260045260246000fd5b600081549050610b0c816106e4565b9050919050565b60008190508160005260206000209050919050565b818103610b36575050610c0e565b610b3f82610afd565b67ffffffffffffffff811115610b5857610b576104de565b5b610b6282546106e4565b610b6d828285610834565b6000601f831160018114610b9c5760008415610b8a578287015490505b610b9485826108a5565b865550610c07565b601f198416610baa87610b13565b9650610bb586610715565b60005b82811015610bdd57848901548255600182019150600185019450602081019050610bb8565b86831015610bfa5784890154610bf6601f891682610887565b8355505b6001600288020188555050505b5050505050505b565b7f4e487b7100000000000000000000000000000000000000000000000000000000600052603160045260246000fd5b610c4881610652565b82525050565b6000602082019050610c636000830184610c3f565b9291505056fea2646970667358221220fb18418fc2efd514510914903c1cfbfe09b2d438fe82659a6345d8e84138e5aa64736f6c63430008140033","opcodes":"PUSH1 0x80 PUSH1 0x40 MSTORE CALLVALUE DUP1 ISZERO PUSH2 0x10 JUMPI PUSH1 0x0 DUP1 REVERT JUMPDEST POP PUSH2 0xC9F DUP1 PUSH2 0x20 PUSH1 0x0 CODECOPY PUSH1 0x0 RETURN INVALID PUSH1 0x80 PUSH1 0x40 MSTORE CALLVALUE DUP1 ISZERO PUSH2 0x10 JUMPI PUSH1 0x0 DUP1 REVERT JUMPDEST POP PUSH1 0x4 CALLDATASIZE LT PUSH2 0x41 JUMPI PUSH1 0x0 CALLDATALOAD PUSH1 0xE0 SHR DUP1 PUSH4 0x4A87E38 EQ PUSH2 0x46 JUMPI DUP1 PUSH4 0x67238562 EQ PUSH2 0x64 JUMPI DUP1 PUSH4 0xC3084117 EQ PUSH2 0x80 JUMPI JUMPDEST PUSH1 0x0 DUP1 REVERT JUMPDEST PUSH2 0x4E PUSH2 0x9C JUMP JUMPDEST PUSH1 0x40 MLOAD PUSH2 0x5B SWAP2 SWAP1 PUSH2 0x49E JUMP JUMPDEST PUSH1 0x40 MLOAD DUP1 SWAP2 SUB SWAP1 RETURN JUMPDEST PUSH2 0x7E PUSH1 0x4 DUP1 CALLDATASIZE SUB DUP2 ADD SWAP1 PUSH2 0x79 SWAP2 SWAP1 PUSH2 0x609 JUMP JUMPDEST PUSH2 0x175 JUMP JUMPDEST STOP JUMPDEST PUSH2 0x9A PUSH1 0x4 DUP1 CALLDATASIZE SUB DUP2 ADD SWAP1 PUSH2 0x95 SWAP2 SWAP1 PUSH2 0x688 JUMP JUMPDEST PUSH2 0x1E4 JUMP JUMPDEST STOP JUMPDEST PUSH1 0x60 PUSH1 0x0 DUP1 SLOAD DUP1 PUSH1 0x20 MUL PUSH1 0x20 ADD PUSH1 0x40 MLOAD SWAP1 DUP2 ADD PUSH1 0x40 MSTORE DUP1 SWAP3 SWAP2 SWAP1 DUP2 DUP2 MSTORE PUSH1 0x20 ADD PUSH1 0x0 SWAP1 JUMPDEST DUP3 DUP3 LT ISZERO PUSH2 0x16C JUMPI DUP4 DUP3 SWAP1 PUSH1 0x0 MSTORE PUSH1 0x20 PUSH1 0x0 KECCAK256 ADD DUP1 SLOAD PUSH2 0xDF SWAP1 PUSH2 0x6E4 JUMP JUMPDEST DUP1 PUSH1 0x1F ADD PUSH1 0x20 DUP1 SWAP2 DIV MUL PUSH1 0x20 ADD PUSH1 0x40 MLOAD SWAP1 DUP2 ADD PUSH1 0x40 MSTORE DUP1 SWAP3 SWAP2 SWAP1 DUP2 DUP2 MSTORE PUSH1 0x20 ADD DUP3 DUP1 SLOAD PUSH2 0x10B SWAP1 PUSH2 0x6E4 JUMP JUMPDEST DUP1 ISZERO PUSH2 0x158 JUMPI DUP1 PUSH1 0x1F LT PUSH2 0x12D JUMPI PUSH2 0x100 DUP1 DUP4 SLOAD DIV MUL DUP4 MSTORE SWAP2 PUSH1 0x20 ADD SWAP2 PUSH2 0x158 JUMP JUMPDEST DUP3 ADD SWAP2 SWAP1 PUSH1 0x0 MSTORE PUSH1 0x20 PUSH1 0x0 KECCAK256 SWAP1 JUMPDEST DUP2 SLOAD DUP2 MSTORE SWAP1 PUSH1 0x1 ADD SWAP1 PUSH1 0x20 ADD DUP1 DUP4 GT PUSH2 0x13B JUMPI DUP3 SWAP1 SUB PUSH1 0x1F AND DUP3 ADD SWAP2 JUMPDEST POP POP POP POP POP DUP2 MSTORE PUSH1 0x20 ADD SWAP1 PUSH1 0x1 ADD SWAP1 PUSH2 0xC0 JUMP JUMPDEST POP POP POP POP SWAP1 POP SWAP1 JUMP JUMPDEST PUSH1 0x0 DUP2 SWAP1 DUP1 PUSH1 0x1 DUP2 SLOAD ADD DUP1 DUP3 SSTORE DUP1 SWAP2 POP POP PUSH1 0x1 SWAP1 SUB SWAP1 PUSH1 0x0 MSTORE PUSH1 0x20 PUSH1 0x0 KECCAK256 ADD PUSH1 0x0 SWAP1 SWAP2 SWAP1 SWAP2 SWAP1 SWAP2 POP SWAP1 DUP2 PUSH2 0x1A9 SWAP2 SWAP1 PUSH2 0x8C1 JUMP JUMPDEST POP PUSH32 0x9C5E28549CAB51B5D02E7EEE4FD0F6D00B70FA92E37DE0A00D5B6A3C1400A927 DUP2 PUSH1 0x40 MLOAD PUSH2 0x1D9 SWAP2 SWAP1 PUSH2 0x9DD JUMP JUMPDEST PUSH1 0x40 MLOAD DUP1 SWAP2 SUB SWAP1 LOG1 POP JUMP JUMPDEST PUSH1 0x0 DUP1 SLOAD SWAP1 POP DUP2 LT PUSH2 0x22B JUMPI PUSH1 0x40 MLOAD PUSH32 0x8C379A000000000000000000000000000000000000000000000000000000000 DUP2 MSTORE PUSH1 0x4 ADD PUSH2 0x222 SWAP1 PUSH2 0xA4B JUMP JUMPDEST PUSH1 0x40 MLOAD DUP1 SWAP2 SUB SWAP1 REVERT JUMPDEST PUSH1 0x0 PUSH1 0x1 PUSH1 0x0 DUP1 SLOAD SWAP1 POP PUSH2 0x23F SWAP2 SWAP1 PUSH2 0xA9A JUMP JUMPDEST DUP2 SLOAD DUP2 LT PUSH2 0x250 JUMPI PUSH2 0x24F PUSH2 0xACE JUMP JUMPDEST JUMPDEST SWAP1 PUSH1 0x0 MSTORE PUSH1 0x20 PUSH1 0x0 KECCAK256 ADD PUSH1 0x0 DUP3 DUP2 SLOAD DUP2 LT PUSH2 0x26E JUMPI PUSH2 0x26D PUSH2 0xACE JUMP JUMPDEST JUMPDEST SWAP1 PUSH1 0x0 MSTORE PUSH1 0x20 PUSH1 0x0 KECCAK256 ADD SWAP1 DUP2 PUSH2 0x284 SWAP2 SWAP1 PUSH2 0xB28 JUMP JUMPDEST POP PUSH1 0x0 DUP1 SLOAD DUP1 PUSH2 0x297 JUMPI PUSH2 0x296 PUSH2 0xC10 JUMP JUMPDEST JUMPDEST PUSH1 0x1 SWAP1 SUB DUP2 DUP2 SWAP1 PUSH1 0x0 MSTORE PUSH1 0x20 PUSH1 0x0 KECCAK256 ADD PUSH1 0x0 PUSH2 0x2B3 SWAP2 SWAP1 PUSH2 0x2EF JUMP JUMPDEST SWAP1 SSTORE PUSH32 0x36A2F40CFE61ACE5BAF26A6E4F86FFA75C62392FDE263D354D42E0E718FA4BD1 DUP2 PUSH1 0x40 MLOAD PUSH2 0x2E4 SWAP2 SWAP1 PUSH2 0xC4E JUMP JUMPDEST PUSH1 0x40 MLOAD DUP1 SWAP2 SUB SWAP1 LOG1 POP JUMP JUMPDEST POP DUP1 SLOAD PUSH2 0x2FB SWAP1 PUSH2 0x6E4 JUMP JUMPDEST PUSH1 0x0 DUP3 SSTORE DUP1 PUSH1 0x1F LT PUSH2 0x30D JUMPI POP PUSH2 0x32C JUMP JUMPDEST PUSH1 0x1F ADD PUSH1 0x20 SWAP1 DIV SWAP1 PUSH1 0x0 MSTORE PUSH1 0x20 PUSH1 0x0 KECCAK256 SWAP1 DUP2 ADD SWAP1 PUSH2 0x32B SWAP2 SWAP1 PUSH2 0x32F JUMP JUMPDEST JUMPDEST POP JUMP JUMPDEST JUMPDEST DUP1 DUP3 GT ISZERO PUSH2 0x348 JUMPI PUSH1 0x0 DUP2 PUSH1 0x0 SWAP1 SSTORE POP PUSH1 0x1 ADD PUSH2 0x330 JUMP JUMPDEST POP SWAP1 JUMP JUMPDEST PUSH1 0x0 DUP2 MLOAD SWAP1 POP SWAP2 SWAP1 POP JUMP JUMPDEST PUSH1 0x0 DUP3 DUP3 MSTORE PUSH1 0x20 DUP3 ADD SWAP1 POP SWAP3 SWAP2 POP POP JUMP JUMPDEST PUSH1 0x0 DUP2 SWAP1 POP PUSH1 0x20 DUP3 ADD SWAP1 POP SWAP2 SWAP1 POP JUMP JUMPDEST PUSH1 0x0 DUP2 MLOAD SWAP1 POP SWAP2 SWAP1 POP JUMP JUMPDEST PUSH1 0x0 DUP3 DUP3 MSTORE PUSH1 0x20 DUP3 ADD SWAP1 POP SWAP3 SWAP2 POP POP JUMP JUMPDEST PUSH1 0x0 JUMPDEST DUP4 DUP2 LT ISZERO PUSH2 0x3B2 JUMPI DUP1 DUP3 ADD MLOAD DUP2 DUP5 ADD MSTORE PUSH1 0x20 DUP2 ADD SWAP1 POP PUSH2 0x397 JUMP JUMPDEST PUSH1 0x0 DUP5 DUP5 ADD MSTORE POP POP POP POP JUMP JUMPDEST PUSH1 0x0 PUSH1 0x1F NOT PUSH1 0x1F DUP4 ADD AND SWAP1 POP SWAP2 SWAP1 POP JUMP JUMPDEST PUSH1 0x0 PUSH2 0x3DA DUP3 PUSH2 0x378 JUMP JUMPDEST PUSH2 0x3E4 DUP2 DUP6 PUSH2 0x383 JUMP JUMPDEST SWAP4 POP PUSH2 0x3F4 DUP2 DUP6 PUSH1 0x20 DUP7 ADD PUSH2 0x394 JUMP JUMPDEST PUSH2 0x3FD DUP2 PUSH2 0x3BE JUMP JUMPDEST DUP5 ADD SWAP2 POP POP SWAP3 SWAP2 POP POP JUMP JUMPDEST PUSH1 0x0 PUSH2 0x414 DUP4 DUP4 PUSH2 0x3CF JUMP JUMPDEST SWAP1 POP SWAP3 SWAP2 POP POP JUMP JUMPDEST PUSH1 0x0 PUSH1 0x20 DUP3 ADD SWAP1 POP SWAP2 SWAP1 POP JUMP JUMPDEST PUSH1 0x0 PUSH2 0x434 DUP3 PUSH2 0x34C JUMP JUMPDEST PUSH2 0x43E DUP2 DUP6 PUSH2 0x357 JUMP JUMPDEST SWAP4 POP DUP4 PUSH1 0x20 DUP3 MUL DUP6 ADD PUSH2 0x450 DUP6 PUSH2 0x368 JUMP JUMPDEST DUP1 PUSH1 0x0 JUMPDEST DUP6 DUP2 LT ISZERO PUSH2 0x48C JUMPI DUP5 DUP5 SUB DUP10 MSTORE DUP2 MLOAD PUSH2 0x46D DUP6 DUP3 PUSH2 0x408 JUMP JUMPDEST SWAP5 POP PUSH2 0x478 DUP4 PUSH2 0x41C JUMP JUMPDEST SWAP3 POP PUSH1 0x20 DUP11 ADD SWAP10 POP POP PUSH1 0x1 DUP2 ADD SWAP1 POP PUSH2 0x454 JUMP JUMPDEST POP DUP3 SWAP8 POP DUP8 SWAP6 POP POP POP POP POP POP SWAP3 SWAP2 POP POP JUMP JUMPDEST PUSH1 0x0 PUSH1 0x20 DUP3 ADD SWAP1 POP DUP2 DUP2 SUB PUSH1 0x0 DUP4 ADD MSTORE PUSH2 0x4B8 DUP2 DUP5 PUSH2 0x429 JUMP JUMPDEST SWAP1 POP SWAP3 SWAP2 POP POP JUMP JUMPDEST PUSH1 0x0 PUSH1 0x40 MLOAD SWAP1 POP SWAP1 JUMP JUMPDEST PUSH1 0x0 DUP1 REVERT JUMPDEST PUSH1 0x0 DUP1 REVERT JUMPDEST PUSH1 0x0 DUP1 REVERT JUMPDEST PUSH1 0x0 DUP1 REVERT JUMPDEST PUSH32 0x4E487B7100000000000000000000000000000000000000000000000000000000 PUSH1 0x0 MSTORE PUSH1 0x41 PUSH1 0x4 MSTORE PUSH1 0x24 PUSH1 0x0 REVERT JUMPDEST PUSH2 0x516 DUP3 PUSH2 0x3BE JUMP JUMPDEST DUP2 ADD DUP2 DUP2 LT PUSH8 0xFFFFFFFFFFFFFFFF DUP3 GT OR ISZERO PUSH2 0x535 JUMPI PUSH2 0x534 PUSH2 0x4DE JUMP JUMPDEST JUMPDEST DUP1 PUSH1 0x40 MSTORE POP POP POP JUMP JUMPDEST PUSH1 0x0 PUSH2 0x548 PUSH2 0x4C0 JUMP JUMPDEST SWAP1 POP PUSH2 0x554 DUP3 DUP3 PUSH2 0x50D JUMP JUMPDEST SWAP2 SWAP1 POP JUMP JUMPDEST PUSH1 0x0 PUSH8 0xFFFFFFFFFFFFFFFF DUP3 GT ISZERO PUSH2 0x574 JUMPI PUSH2 0x573 PUSH2 0x4DE JUMP JUMPDEST JUMPDEST PUSH2 0x57D DUP3 PUSH2 0x3BE JUMP JUMPDEST SWAP1 POP PUSH1 0x20 DUP2 ADD SWAP1 POP SWAP2 SWAP1 POP JUMP JUMPDEST DUP3 DUP2 DUP4 CALLDATACOPY PUSH1 0x0 DUP4 DUP4 ADD MSTORE POP POP POP JUMP JUMPDEST PUSH1 0x0 PUSH2 0x5AC PUSH2 0x5A7 DUP5 PUSH2 0x559 JUMP JUMPDEST PUSH2 0x53E JUMP JUMPDEST SWAP1 POP DUP3 DUP2 MSTORE PUSH1 0x20 DUP2 ADD DUP5 DUP5 DUP5 ADD GT ISZERO PUSH2 0x5C8 JUMPI PUSH2 0x5C7 PUSH2 0x4D9 JUMP JUMPDEST JUMPDEST PUSH2 0x5D3 DUP5 DUP3 DUP6 PUSH2 0x58A JUMP JUMPDEST POP SWAP4 SWAP3 POP POP POP JUMP JUMPDEST PUSH1 0x0 DUP3 PUSH1 0x1F DUP4 ADD SLT PUSH2 0x5F0 JUMPI PUSH2 0x5EF PUSH2 0x4D4 JUMP JUMPDEST JUMPDEST DUP2 CALLDATALOAD PUSH2 0x600 DUP5 DUP3 PUSH1 0x20 DUP7 ADD PUSH2 0x599 JUMP JUMPDEST SWAP2 POP POP SWAP3 SWAP2 POP POP JUMP JUMPDEST PUSH1 0x0 PUSH1 0x20 DUP3 DUP5 SUB SLT ISZERO PUSH2 0x61F JUMPI PUSH2 0x61E PUSH2 0x4CA JUMP JUMPDEST JUMPDEST PUSH1 0x0 DUP3 ADD CALLDATALOAD PUSH8 0xFFFFFFFFFFFFFFFF DUP2 GT ISZERO PUSH2 0x63D JUMPI PUSH2 0x63C PUSH2 0x4CF JUMP JUMPDEST JUMPDEST PUSH2 0x649 DUP5 DUP3 DUP6 ADD PUSH2 0x5DB JUMP JUMPDEST SWAP2 POP POP SWAP3 SWAP2 POP POP JUMP JUMPDEST PUSH1 0x0 DUP2 SWAP1 POP SWAP2 SWAP1 POP JUMP JUMPDEST PUSH2 0x665 DUP2 PUSH2 0x652 JUMP JUMPDEST DUP2 EQ PUSH2 0x670 JUMPI PUSH1 0x0 DUP1 REVERT JUMPDEST POP JUMP JUMPDEST PUSH1 0x0 DUP2 CALLDATALOAD SWAP1 POP PUSH2 0x682 DUP2 PUSH2 0x65C JUMP JUMPDEST SWAP3 SWAP2 POP POP JUMP JUMPDEST PUSH1 0x0 PUSH1 0x20 DUP3 DUP5 SUB SLT ISZERO PUSH2 0x69E JUMPI PUSH2 0x69D PUSH2 0x4CA JUMP JUMPDEST JUMPDEST PUSH1 0x0 PUSH2 0x6AC DUP5 DUP3 DUP6 ADD PUSH2 0x673 JUMP JUMPDEST SWAP2 POP POP SWAP3 SWAP2 POP POP JUMP JUMPDEST PUSH32 0x4E487B7100000000000000000000000000000000000000000000000000000000 PUSH1 0x0 MSTORE PUSH1 0x22 PUSH1 0x4 MSTORE PUSH1 0x24 PUSH1 0x0 REVERT JUMPDEST PUSH1 0x0 PUSH1 0x2 DUP3 DIV SWAP1 POP PUSH1 0x1 DUP3 AND DUP1 PUSH2 0x6FC JUMPI PUSH1 0x7F DUP3 AND SWAP2 POP JUMPDEST PUSH1 0x20 DUP3 LT DUP2 SUB PUSH2 0x70F JUMPI PUSH2 0x70E PUSH2 0x6B5 JUMP JUMPDEST JUMPDEST POP SWAP2 SWAP1 POP JUMP JUMPDEST PUSH1 0x0 DUP2 SWAP1 POP DUP2 PUSH1 0x0 MSTORE PUSH1 0x20 PUSH1 0x0 KECCAK256 SWAP1 POP SWAP2 SWAP1 POP JUMP JUMPDEST PUSH1 0x0 PUSH1 0x20 PUSH1 0x1F DUP4 ADD DIV SWAP1 POP SWAP2 SWAP1 POP JUMP JUMPDEST PUSH1 0x0 DUP3 DUP3 SHL SWAP1 POP SWAP3 SWAP2 POP POP JUMP JUMPDEST PUSH1 0x0 PUSH1 0x8 DUP4 MUL PUSH2 0x777 PUSH32 0xFFFFFFFFFFFFFFFFFFFFFFFFFFFFFFFFFFFFFFFFFFFFFFFFFFFFFFFFFFFFFFFF DUP3 PUSH2 0x73A JUMP JUMPDEST PUSH2 0x781 DUP7 DUP4 PUSH2 0x73A JUMP JUMPDEST SWAP6 POP DUP1 NOT DUP5 AND SWAP4 POP DUP1 DUP7 AND DUP5 OR SWAP3 POP POP POP SWAP4 SWAP3 POP POP POP JUMP JUMPDEST PUSH1 0x0 DUP2 SWAP1 POP SWAP2 SWAP1 POP JUMP JUMPDEST PUSH1 0x0 PUSH2 0x7BE PUSH2 0x7B9 PUSH2 0x7B4 DUP5 PUSH2 0x652 JUMP JUMPDEST PUSH2 0x799 JUMP JUMPDEST PUSH2 0x652 JUMP JUMPDEST SWAP1 POP SWAP2 SWAP1 POP JUMP JUMPDEST PUSH1 0x0 DUP2 SWAP1 POP SWAP2 SWAP1 POP JUMP JUMPDEST PUSH2 0x7D8 DUP4 PUSH2 0x7A3 JUMP JUMPDEST PUSH2 0x7EC PUSH2 0x7E4 DUP3 PUSH2 0x7C5 JUMP JUMPDEST DUP5 DUP5 SLOAD PUSH2 0x747 JUMP JUMPDEST DUP3 SSTORE POP POP POP POP JUMP JUMPDEST PUSH1 0x0 SWAP1 JUMP JUMPDEST PUSH2 0x801 PUSH2 0x7F4 JUMP JUMPDEST PUSH2 0x80C DUP2 DUP5 DUP5 PUSH2 0x7CF JUMP JUMPDEST POP POP POP JUMP JUMPDEST JUMPDEST DUP2 DUP2 LT ISZERO PUSH2 0x830 JUMPI PUSH2 0x825 PUSH1 0x0 DUP3 PUSH2 0x7F9 JUMP JUMPDEST PUSH1 0x1 DUP2 ADD SWAP1 POP PUSH2 0x812 JUMP JUMPDEST POP POP JUMP JUMPDEST PUSH1 0x1F DUP3 GT ISZERO PUSH2 0x875 JUMPI PUSH2 0x846 DUP2 PUSH2 0x715 JUMP JUMPDEST PUSH2 0x84F DUP5 PUSH2 0x72A JUMP JUMPDEST DUP2 ADD PUSH1 0x20 DUP6 LT ISZERO PUSH2 0x85E JUMPI DUP2 SWAP1 POP JUMPDEST PUSH2 0x872 PUSH2 0x86A DUP6 PUSH2 0x72A JUMP JUMPDEST DUP4 ADD DUP3 PUSH2 0x811 JUMP JUMPDEST POP POP JUMPDEST POP POP POP JUMP JUMPDEST PUSH1 0x0 DUP3 DUP3 SHR SWAP1 POP SWAP3 SWAP2 POP POP JUMP JUMPDEST PUSH1 0x0 PUSH2 0x898 PUSH1 0x0 NOT DUP5 PUSH1 0x8 MUL PUSH2 0x87A JUMP JUMPDEST NOT DUP1 DUP4 AND SWAP2 POP POP SWAP3 SWAP2 POP POP JUMP JUMPDEST PUSH1 0x0 PUSH2 0x8B1 DUP4 DUP4 PUSH2 0x887 JUMP JUMPDEST SWAP2 POP DUP3 PUSH1 0x2 MUL DUP3 OR SWAP1 POP SWAP3 SWAP2 POP POP JUMP JUMPDEST PUSH2 0x8CA DUP3 PUSH2 0x378 JUMP JUMPDEST PUSH8 0xFFFFFFFFFFFFFFFF DUP2 GT ISZERO PUSH2 0x8E3 JUMPI PUSH2 0x8E2 PUSH2 0x4DE JUMP JUMPDEST JUMPDEST PUSH2 0x8ED DUP3 SLOAD PUSH2 0x6E4 JUMP JUMPDEST PUSH2 0x8F8 DUP3 DUP3 DUP6 PUSH2 0x834 JUMP JUMPDEST PUSH1 0x0 PUSH1 0x20 SWAP1 POP PUSH1 0x1F DUP4 GT PUSH1 0x1 DUP2 EQ PUSH2 0x92B JUMPI PUSH1 0x0 DUP5 ISZERO PUSH2 0x919 JUMPI DUP3 DUP8 ADD MLOAD SWAP1 POP JUMPDEST PUSH2 0x923 DUP6 DUP3 PUSH2 0x8A5 JUMP JUMPDEST DUP7 SSTORE POP PUSH2 0x98B JUMP JUMPDEST PUSH1 0x1F NOT DUP5 AND PUSH2 0x939 DUP7 PUSH2 0x715 JUMP JUMPDEST PUSH1 0x0 JUMPDEST DUP3 DUP2 LT ISZERO PUSH2 0x961 JUMPI DUP5 DUP10 ADD MLOAD DUP3 SSTORE PUSH1 0x1 DUP3 ADD SWAP2 POP PUSH1 0x20 DUP6 ADD SWAP5 POP PUSH1 0x20 DUP2 ADD SWAP1 POP PUSH2 0x93C JUMP JUMPDEST DUP7 DUP4 LT ISZERO PUSH2 0x97E JUMPI DUP5 DUP10 ADD MLOAD PUSH2 0x97A PUSH1 0x1F DUP10 AND DUP3 PUSH2 0x887 JUMP JUMPDEST DUP4 SSTORE POP JUMPDEST PUSH1 0x1 PUSH1 0x2 DUP9 MUL ADD DUP9 SSTORE POP POP POP JUMPDEST POP POP POP POP POP POP JUMP JUMPDEST PUSH1 0x0 DUP3 DUP3 MSTORE PUSH1 0x20 DUP3 ADD SWAP1 POP SWAP3 SWAP2 POP POP JUMP JUMPDEST PUSH1 0x0 PUSH2 0x9AF DUP3 PUSH2 0x378 JUMP JUMPDEST PUSH2 0x9B9 DUP2 DUP6 PUSH2 0x993 JUMP JUMPDEST SWAP4 POP PUSH2 0x9C9 DUP2 DUP6 PUSH1 0x20 DUP7 ADD PUSH2 0x394 JUMP JUMPDEST PUSH2 0x9D2 DUP2 PUSH2 0x3BE JUMP JUMPDEST DUP5 ADD SWAP2 POP POP SWAP3 SWAP2 POP POP JUMP JUMPDEST PUSH1 0x0 PUSH1 0x20 DUP3 ADD SWAP1 POP DUP2 DUP2 SUB PUSH1 0x0 DUP4 ADD MSTORE PUSH2 0x9F7 DUP2 DUP5 PUSH2 0x9A4 JUMP JUMPDEST SWAP1 POP SWAP3 SWAP2 POP POP JUMP JUMPDEST PUSH32 0x496E76616C696420696E64657800000000000000000000000000000000000000 PUSH1 0x0 DUP3 ADD MSTORE POP JUMP JUMPDEST PUSH1 0x0 PUSH2 0xA35 PUSH1 0xD DUP4 PUSH2 0x993 JUMP JUMPDEST SWAP2 POP PUSH2 0xA40 DUP3 PUSH2 0x9FF JUMP JUMPDEST PUSH1 0x20 DUP3 ADD SWAP1 POP SWAP2 SWAP1 POP JUMP JUMPDEST PUSH1 0x0 PUSH1 0x20 DUP3 ADD SWAP1 POP DUP2 DUP2 SUB PUSH1 0x0 DUP4 ADD MSTORE PUSH2 0xA64 DUP2 PUSH2 0xA28 JUMP JUMPDEST SWAP1 POP SWAP2 SWAP1 POP JUMP JUMPDEST PUSH32 0x4E487B7100000000000000000000000000000000000000000000000000000000 PUSH1 0x0 MSTORE PUSH1 0x11 PUSH1 0x4 MSTORE PUSH1 0x24 PUSH1 0x0 REVERT JUMPDEST PUSH1 0x0 PUSH2 0xAA5 DUP3 PUSH2 0x652 JUMP JUMPDEST SWAP2 POP PUSH2 0xAB0 DUP4 PUSH2 0x652 JUMP JUMPDEST SWAP3 POP DUP3 DUP3 SUB SWAP1 POP DUP2 DUP2 GT ISZERO PUSH2 0xAC8 JUMPI PUSH2 0xAC7 PUSH2 0xA6B JUMP JUMPDEST JUMPDEST SWAP3 SWAP2 POP POP JUMP JUMPDEST PUSH32 0x4E487B7100000000000000000000000000000000000000000000000000000000 PUSH1 0x0 MSTORE PUSH1 0x32 PUSH1 0x4 MSTORE PUSH1 0x24 PUSH1 0x0 REVERT JUMPDEST PUSH1 0x0 DUP2 SLOAD SWAP1 POP PUSH2 0xB0C DUP2 PUSH2 0x6E4 JUMP JUMPDEST SWAP1 POP SWAP2 SWAP1 POP JUMP JUMPDEST PUSH1 0x0 DUP2 SWAP1 POP DUP2 PUSH1 0x0 MSTORE PUSH1 0x20 PUSH1 0x0 KECCAK256 SWAP1 POP SWAP2 SWAP1 POP JUMP JUMPDEST DUP2 DUP2 SUB PUSH2 0xB36 JUMPI POP POP PUSH2 0xC0E JUMP JUMPDEST PUSH2 0xB3F DUP3 PUSH2 0xAFD JUMP JUMPDEST PUSH8 0xFFFFFFFFFFFFFFFF DUP2 GT ISZERO PUSH2 0xB58 JUMPI PUSH2 0xB57 PUSH2 0x4DE JUMP JUMPDEST JUMPDEST PUSH2 0xB62 DUP3 SLOAD PUSH2 0x6E4 JUMP JUMPDEST PUSH2 0xB6D DUP3 DUP3 DUP6 PUSH2 0x834 JUMP JUMPDEST PUSH1 0x0 PUSH1 0x1F DUP4 GT PUSH1 0x1 DUP2 EQ PUSH2 0xB9C JUMPI PUSH1 0x0 DUP5 ISZERO PUSH2 0xB8A JUMPI DUP3 DUP8 ADD SLOAD SWAP1 POP JUMPDEST PUSH2 0xB94 DUP6 DUP3 PUSH2 0x8A5 JUMP JUMPDEST DUP7 SSTORE POP PUSH2 0xC07 JUMP JUMPDEST PUSH1 0x1F NOT DUP5 AND PUSH2 0xBAA DUP8 PUSH2 0xB13 JUMP JUMPDEST SWAP7 POP PUSH2 0xBB5 DUP7 PUSH2 0x715 JUMP JUMPDEST PUSH1 0x0 JUMPDEST DUP3 DUP2 LT ISZERO PUSH2 0xBDD JUMPI DUP5 DUP10 ADD SLOAD DUP3 SSTORE PUSH1 0x1 DUP3 ADD SWAP2 POP PUSH1 0x1 DUP6 ADD SWAP5 POP PUSH1 0x20 DUP2 ADD SWAP1 POP PUSH2 0xBB8 JUMP JUMPDEST DUP7 DUP4 LT ISZERO PUSH2 0xBFA JUMPI DUP5 DUP10 ADD SLOAD PUSH2 0xBF6 PUSH1 0x1F DUP10 AND DUP3 PUSH2 0x887 JUMP JUMPDEST DUP4 SSTORE POP JUMPDEST PUSH1 0x1 PUSH1 0x2 DUP9 MUL ADD DUP9 SSTORE POP POP POP JUMPDEST POP POP POP POP POP POP JUMPDEST JUMP JUMPDEST PUSH32 0x4E487B7100000000000000000000000000000000000000000000000000000000 PUSH1 0x0 MSTORE PUSH1 0x31 PUSH1 0x4 MSTORE PUSH1 0x24 PUSH1 0x0 REVERT JUMPDEST PUSH2 0xC48 DUP2 PUSH2 0x652 JUMP JUMPDEST DUP3 MSTORE POP POP JUMP JUMPDEST PUSH1 0x0 PUSH1 0x20 DUP3 ADD SWAP1 POP PUSH2 0xC63 PUSH1 0x0 DUP4 ADD DUP5 PUSH2 0xC3F JUMP JUMPDEST SWAP3 SWAP2 POP POP JUMP INVALID LOG2 PUSH5 0x6970667358 0x22 SLT KECCAK256 0xFB XOR COINBASE DUP16 0xC2 0xEF 0xD5 EQ MLOAD MULMOD EQ SWAP1 EXTCODECOPY SHR 0xFB INVALID MULMOD 0xB2 0xD4 CODESIZE INVALID DUP3 PUSH6 0x9A6345D8E841 CODESIZE 0xE5 0xAA PUSH5 0x736F6C6343 STOP ADDMOD EQ STOP CALLER "},"methodIdentifiers":{"addTask(string)":"67238562","getTasks()":"04a87e38","removeTask(uint256)":"c3084117"}}}}}