{
  "_format": "hh-sol-artifact-1",
  "contractName": "TodoList",
  "sourceName": "contracts/TodoList.sol",
  "abi": [
    {
      "anonymous": false,
      "inputs": [
        {
          "indexed": false,
          "internalType": "string",
          "name": "task",
          "type": "string"
        }
      ],
      "name": "TaskAdded",
      "type": "event"
    },
    {
      "anonymous": false,
      "inputs": [
        {
          "indexed": false,
          "internalType": "uint256",
          "name": "index",
          "type": "uint256"
        }
      ],
      "name": "TaskRemoved",
      "type": "event"
    },
    {
      "inputs": [
        {
          "internalType": "string",
          "name": "_task",
          "type": "string"
        }
      ],
      "name": "addTask",
      "outputs": [],
      "stateMutability": "nonpayable",
      "type": "function"
    },
    {
      "inputs": [],
      "name": "getTasks",
      "outputs": [
        {
          "internalType": "string[]",
          "name": "",
          "type": "string[]"
        }
      ],
      "stateMutability": "view",
      "type": "function"
    },
    {
      "inputs": [
        {
          "internalType": "uint256",
          "name": "_index",
          "type": "uint256"
        }
      ],
      "name": "removeTask",
      "outputs": [],
      "stateMutability": "nonpayable",
      "type": "function"
    }
  ],
  "bytecode": "0x608060405234801561001057600080fd5b50610c9f806100206000396000f3fe608060405234801561001057600080fd5b50600436106100415760003560e01c806304a87e38146100465780636723856214610064578063c308411714610080575b600080fd5b61004e61009c565b60405161005b919061049e565b60405180910390f35b61007e60048036038101906100799190610609565b610175565b005b61009a60048036038101906100959190610688565b6101e4565b005b60606000805480602002602001604051908101604052809291908181526020016000905b8282101561016c5783829060005260206000200180546100df906106e4565b80601f016020809104026020016040519081016040528092919081815260200182805461010b906106e4565b80156101585780601f1061012d57610100808354040283529160200191610158565b820191906000526020600020905b81548152906001019060200180831161013b57829003601f168201915b5050505050815260200190600101906100c0565b50505050905090565b6000819080600181540180825580915050600190039060005260206000200160009091909190915090816101a991906108c1565b507f9c5e28549cab51b5d02e7eee4fd0f6d00b70fa92e37de0a00d5b6a3c1400a927816040516101d991906109dd565b60405180910390a150565b600080549050811061022b576040517f08c379a000000000000000000000000000000000000000000000000000000000815260040161022290610a4b565b60405180910390fd5b6000600160008054905061023f9190610a9a565b815481106102505761024f610ace565b5b906000526020600020016000828154811061026e5761026d610ace565b5b9060005260206000200190816102849190610b28565b50600080548061029757610296610c10565b5b6001900381819060005260206000200160006102b391906102ef565b90557f36a2f40cfe61ace5baf26a6e4f86ffa75c62392fde263d354d42e0e718fa4bd1816040516102e49190610c4e565b60405180910390a150565b5080546102fb906106e4565b6000825580601f1061030d575061032c565b601f01602090049060005260206000209081019061032b919061032f565b5b50565b5b80821115610348576000816000905550600101610330565b5090565b600081519050919050565b600082825260208201905092915050565b6000819050602082019050919050565b600081519050919050565b600082825260208201905092915050565b60005b838110156103b2578082015181840152602081019050610397565b60008484015250505050565b6000601f19601f8301169050919050565b60006103da82610378565b6103e48185610383565b93506103f4818560208601610394565b6103fd816103be565b840191505092915050565b600061041483836103cf565b905092915050565b6000602082019050919050565b60006104348261034c565b61043e8185610357565b93508360208202850161045085610368565b8060005b8581101561048c578484038952815161046d8582610408565b94506104788361041c565b925060208a01995050600181019050610454565b50829750879550505050505092915050565b600060208201905081810360008301526104b88184610429565b905092915050565b6000604051905090565b600080fd5b600080fd5b600080fd5b600080fd5b7f4e487b7100000000000000000000000000000000000000000000000000000000600052604160045260246000fd5b610516826103be565b810181811067ffffffffffffffff82111715610535576105346104de565b5b80604052505050565b60006105486104c0565b9050610554828261050d565b919050565b600067ffffffffffffffff821115610574576105736104de565b5b61057d826103be565b9050602081019050919050565b82818337600083830152505050565b60006105ac6105a784610559565b61053e565b9050828152602081018484840111156105c8576105c76104d9565b5b6105d384828561058a565b509392505050565b600082601f8301126105f0576105ef6104d4565b5b8135610600848260208601610599565b91505092915050565b60006020828403121561061f5761061e6104ca565b5b600082013567ffffffffffffffff81111561063d5761063c6104cf565b5b610649848285016105db565b91505092915050565b6000819050919050565b61066581610652565b811461067057600080fd5b50565b6000813590506106828161065c565b92915050565b60006020828403121561069e5761069d6104ca565b5b60006106ac84828501610673565b91505092915050565b7f4e487b7100000000000000000000000000000000000000000000000000000000600052602260045260246000fd5b600060028204905060018216806106fc57607f821691505b60208210810361070f5761070e6106b5565b5b50919050565b60008190508160005260206000209050919050565b60006020601f8301049050919050565b600082821b905092915050565b6000600883026107777fffffffffffffffffffffffffffffffffffffffffffffffffffffffffffffffff8261073a565b610781868361073a565b95508019841693508086168417925050509392505050565b6000819050919050565b60006107be6107b96107b484610652565b610799565b610652565b9050919050565b6000819050919050565b6107d8836107a3565b6107ec6107e4826107c5565b848454610747565b825550505050565b600090565b6108016107f4565b61080c8184846107cf565b505050565b5b81811015610830576108256000826107f9565b600181019050610812565b5050565b601f8211156108755761084681610715565b61084f8461072a565b8101602085101561085e578190505b61087261086a8561072a565b830182610811565b50505b505050565b600082821c905092915050565b60006108986000198460080261087a565b1980831691505092915050565b60006108b18383610887565b9150826002028217905092915050565b6108ca82610378565b67ffffffffffffffff8111156108e3576108e26104de565b5b6108ed82546106e4565b6108f8828285610834565b600060209050601f83116001811461092b5760008415610919578287015190505b61092385826108a5565b86555061098b565b601f19841661093986610715565b60005b828110156109615784890151825560018201915060208501945060208101905061093c565b8683101561097e578489015161097a601f891682610887565b8355505b6001600288020188555050505b505050505050565b600082825260208201905092915050565b60006109af82610378565b6109b98185610993565b93506109c9818560208601610394565b6109d2816103be565b840191505092915050565b600060208201905081810360008301526109f781846109a4565b905092915050565b7f496e76616c696420696e64657800000000000000000000000000000000000000600082015250565b6000610a35600d83610993565b9150610a40826109ff565b602082019050919050565b60006020820190508181036000830152610a6481610a28565b9050919050565b7f4e487b7100000000000000000000000000000000000000000000000000000000600052601160045260246000fd5b6000610aa582610652565b9150610ab083610652565b9250828203905081811115610ac857610ac7610a6b565b5b92915050565b7f4e487b7100000000000000000000000000000000000000000000000000000000600052603260045260246000fd5b600081549050610b0c816106e4565b9050919050565b60008190508160005260206000209050919050565b818103610b36575050610c0e565b610b3f82610afd565b67ffffffffffffffff811115610b5857610b576104de565b5b610b6282546106e4565b610b6d828285610834565b6000601f831160018114610b9c5760008415610b8a578287015490505b610b9485826108a5565b865550610c07565b601f198416610baa87610b13565b9650610bb586610715565b60005b82811015610bdd57848901548255600182019150600185019450602081019050610bb8565b86831015610bfa5784890154610bf6601f891682610887565b8355505b6001600288020188555050505b5050505050505b565b7f4e487b7100000000000000000000000000000000000000000000000000000000600052603160045260246000fd5b610c4881610652565b82525050565b6000602082019050610c636000830184610c3f565b9291505056fea2646970667358221220fb18418fc2efd514510914903c1cfbfe09b2d438fe82659a6345d8e84138e5aa64736f6c63430008140033",
  "linkReferences": {},
  "deployedLinkReferences": {}
}